:1000000014C024C022C021C020C01FC0C1C01DC058
:100010001CC01BC01AC019C018C017C016C015C01C
:1000200014C013C012C011C010C011241FBECFE5F0
:10003000D1E0DEBFCDBF20E0A0E6B0E001C01D9260
:10004000AC36B207E1F70AD12FC1DACF1F920F9277
:100050000FB60F9211248F939F9381E090E09093BD
:100060006500809364009F918F910F900FBE0F9059
:100070001F901895809168009091690081309105DA
:1000800099F018F00697D8F4089582B38F7C82BB5C
:10009000809164009091650081309105A1F4909366
:1000A000690080936800089582B3806382BB88B33F
:1000B000807F88BB109265001092640008951092B2
:1000C00069001092680008958130910549F028F088
:1000D000029761F483E090E005C081E090E002C007
:1000E00082E090E0909363008093620082E090E071
:1000F000909369008093680008958130910549F0DC
:1001000028F0029761F48AE090E005C083E090E077
:1001100002C087E090E0909363008093620083E0E8
:1001200090E0909369008093680008958130910574
:1001300049F028F0029761F485E090E005C082E084
:1001400090E002C084E090E09093630080936200AE
:1001500084E090E090936900809368000895813076
:10016000910549F028F0029761F489E090E005C01C
:1001700083E090E002C086E090E09093630080937B
:10018000620085E090E09093690080936800089594
:100190001F920F920FB60F9211242F933F934F93FC
:1001A0005F936F937F938F939F93AF93BF93EF93DF
:1001B000FF9380916600909167000196883E23E04E
:1001C00092072CF4909367008093660036C01092DB
:1001D0006700109266008091620090916300019721
:1001E00090936300809362001816190634F1809191
:1001F00068009091690083309105A1F040F4029766
:10020000E1F480916A0090916B005EDF16C084304B
:10021000910571F0059789F480916A0090916B00C7
:100220009EDF0BC080916A0090916B0066DF05C075
:1002300080916A0090916B0079DFFF91EF91BF91FF
:10024000AF919F918F917F916F915F914F913F916E
:100250002F910F900FBE0F901F901895F8948FEF6D
:1002600087BB18BA84E08ABB1BBA8AE781BB12BA83
:100270008BB780648BBF85B7836085BF10926900A0
:100280001092680010926500109264001092630052
:1002900010926200789410BE85E083BF12BE89B7C9
:0C02A000826089BFE7DEFECFF894FFCF3C
:00000001FF
