:1000000014C024C04BC021C020C01FC01EC01DC0D2
:100010001CC01BC01AC019C018C017C016C015C01C
:1000200014C013C012C011C025C011241FBECFE5DB
:10003000D1E0DEBFCDBF20E0A0E6B0E001C01D9260
:10004000A037B207E1F7EED013C1DACF1F920F92BB
:100050000FB60F9211248F939F9381E090E09093BD
:100060006B0080936A009F918F910F900FBE0F904D
:100070001F9018951F920F920FB60F9211248F9315
:100080009F9381E090E090936900809368009F9136
:100090008F910F900FBE0F901F9018951F920F9287
:1000A0000FB60F9211248F939F9381E090E090936D
:1000B0006700809366009F918F910F900FBE0F9005
:1000C0001F90189580916C0090916D008230910581
:1000D000C1F128F4009761F00197A9F03AC084308B
:1000E0009105A1F180F10597A1F5C598C49A0895ED
:1000F00082B38F7C82BB80916A0090916B008130CB
:10010000910559F512C082B3806382BB88B3807FAA
:1001100088BB10926B0010926A00809168009091E9
:100120006900019739F482E090E090936D0080932C
:100130006C0008958091660090916700019769F4C2
:10014000F2CFC79A0895C798C69A0895C698C59AD7
:10015000089510926D0010926C0008958130910501
:1001600049F028F0029761F483E090E005C081E057
:1001700090E002C082E090E0909363008093620080
:1001800082E090E090936D0080936C000895813040
:10019000910549F028F0029761F48AE090E005C0EB
:1001A00083E090E002C087E090E09093630080934A
:1001B000620083E090E090936D0080936C0008955E
:1001C0008130910549F028F0029761F485E090E0D4
:1001D00005C082E090E002C084E090E0909363006C
:1001E0008093620084E090E090936D0080936C00B7
:1001F00008958130910549F028F0029761F489E073
:1002000090E005C083E090E002C086E090E090932B
:1002100063008093620085E090E090936D0080938E
:100220006C000895F8948FEF87BB18BA1ABA1BBAFE
:1002300080E381BB12BA8BB7806D8BBF289A85B7DC
:10024000836085BF85B78C6085BF10926D0010926A
:100250006C0010926B0010926A0010926300109272
:100260006200789410BE85E083BF12BE2BDFFECF04
:04027000F894FFCF30
:00000001FF
